:100000000EC028C0C2C026C025C024C023C022C044
:1000100021C020C084C01EC0C4C11CC01BC011248C
:100020001FBECFE5D2E0DEBFCDBF10E0A0E6B0E05E
:10003000E4E2F4E002C005900D92A236B107D9F7D0
:1000400021E0A2E6B0E001C01D92A836B207E1F7B8
:1000500002D0E6C1D5CF00D000D0CDB7DEB7F8943E
:10006000479A80B5886080BD80B5826080BD80B5CC
:10007000816080BD82E08ABD13BE83B7856083BF87
:100080008CE789BD89B7806189BF8BB780628BBFE0
:10009000A89A40E051E064E070E088E690E082D108
:1000A00080E090E08FD169837A838B839C83DC012D
:1000B000CB018093630090936400A0936500B0939C
:1000C0006600789480916700882309F11092670098
:1000D00040E051E064E070E088E690E078D1809103
:1000E000630090916400A0916500B091660040911A
:1000F000630050916400609165007091660048173C
:1001000059076A077B0759F780E090E081D185B7EE
:10011000806285BF889585B78F7D85BFD3CF789462
:100120001F921FB61F9211248F939F93AF93BF937B
:10013000809162008E5F809362008D37F0F087B30C
:1001400090E2892787BBBD9B13C08091630090918B
:100150006400A0916500B09166000196A11DB11DDB
:100160008093630090936400A0936500B093660051
:10017000809162008D5780936200BF91AF919F91F3
:100180008F911F901FBE1F9018950F920FB60F9260
:100190001F9211242F933F934F935F938F939F93BD
:1001A000EF93FF9396B3892F817090FF10C0A895AD
:1001B00080E881BDFF91EF919F918F915F914F9169
:1001C0003F912F911F900F900FBE0F901895A895FB
:1001D00090EC91BDE8E0B29B1FC096B396959170EC
:1001E000880F892BE15001F5382F3877383341F5E6
:1001F00096B3E92FE47092FD1AC098E0B29B1AC042
:1002000026B326952170EE0FE22B9150C9F0B29BD8
:10021000F5CFB09BFCCFCECFB099CCCF01B407FEC9
:10022000DACFC8CFB099C6CFB299FCCFD4CFB09BAC
:10023000DFCFC0CFB099BECF01B407FEDFCFBACFBA
:1002400087FF17C090E0383309F075C0F0E0F595EE
:10025000E795F595E795EF7145E0880F991F4A9569
:10026000E1F78E2BE82FF0E0E859FF4F70C0B0990E
:10027000A1CF96B3292F247092FDF9CF98E0B29BBD
:1002800020C046B346954170220F242B915009F5AA
:100290004091600090E03833F9F441118BCFF0E0E9
:1002A000F595E795F595E795EF7145E0880F991F6E
:1002B0004A95E1F78E2BE82FF0E0E859FF4F2083B5
:1002C00079CFB09977CF01B407FED9CF73CFB0996A
:1002D00071CFB299FCCFD3CF95958795959587959A
:1002E000442389F08D3009F065CF822F881F88273D
:1002F000881F411105C027FF03C091E0909367005C
:100300008093600057CF582F587131F48370E82FD5
:10031000F0E0ED59FF4FD3CF8D3039F338EF380F80
:10032000343028F030EF380F303108F043CF88599F
:100330009F4FFC01C4CF9595879595958795282F5C
:100340002871D9F48370E82FF0E0ED59FF4F8081D8
:1003500027B3809598E0B29B02C0B09BFCCF87FB8F
:1003600021F927BB880F9150A9F0B299F4CFB09929
:10037000F2CF01B407FEF9CFEECF8F7198EF980F4F
:10038000943008F46FCF90EF980F903108F46ACF53
:100390008FEFDECFB09903C001B407FEFBCFB99851
:1003A00009CF1895DC01CB01FC01E199FECF06C015
:1003B000FFBBEEBBE09A31960DB20D92415050401A
:1003C000B8F70895A6E1B0E044E050E0EDCFDC01DD
:1003D000A40FB51F4150504040F0CB01840F951F32
:1003E0002E9105D041505040D8F70895262FE1991D
:1003F000FECF9FBB8EBBE09A01970DB2021639F07B
:100400001CBA2DBB0FB6F894E29AE19A0FBE08957C
:100410000396272FECDFEADF252FE9DF242FE7CF34
:04042000F894FFCF7E
:020424000100D5
:00000001FF
